:1000000033C000004CC000004AC0000048C00000DF
:1000100046C0000044C0000042C00000C5C000004F
:100020003EC000003CC000003AC0000038C00000E4
:1000300036C0000034C0000032C0000030C00000F4
:100040002EC000002CC000002AC0000028C0000004
:1000500026C0000024C0000022C0000020C0000014
:100060001EC000001CC0000011241FBECFEFD8E04E
:10007000DEBFCDBF11E0A0E0B1E0E2E0F2E002C0FF
:1000800005900D92A431B107D9F711E0A4E1B1E0D8
:1000900001C01D92A631B107E1F702D0B0C0B0CFC8
:1000A00019D0C0E06C2F66956695CF5F70E0660F43
:1000B000771F80E091E067D06C2F86E091E063D0FD
:1000C0002FE986E891E0215080409040E1F700C0A0
:1000D0000000E8CF1092C5008CE08093C400E0ECF3
:1000E000F0E080818260808388E18093C10086E0B7
:1000F0008093C20008959091C00095FFFCCF80933B
:10010000C60008951F93CF93DF93EC0110E0FE012A
:10011000E10FF11D8081882319F0EDDF1F5FF7CF1C
:10012000DF91CF911F9108950F931F93CF93DF938A
:10013000EC0160E177E24FD080E3860FDCDFCE0197
:1001400068EE73E048D0CB010AE010E0B80143D07C
:10015000805DD1DFCE0164E670E03DD0CB01B80117
:100160003AD0805DC8DFCE01B80135D0C82FCB01B1
:10017000B80131D0805DBFDF80E38C0FDF91CF917C
:100180001F910F91B8CFCF93DF931F92CDB7DEB7FA
:100190006983B8DF6981862F90E0C6DF80E191E056
:1001A0000F90DF91CF91AECF1F920F920FB60F92AB
:1001B00011248F939F9380911401909115010196C2
:1001C00090931501809314019F918F910F900FBE12
:1001D0000F901F901895AA1BBB1B51E107C0AA1FC7
:1001E000BB1FA617B70710F0A61BB70B881F991FD8
:1001F0005A95A9F780959095BC01CD010895F89482
:02020000FFCF2E
:1002020071756F3A20006C6F6F705661723A200000
:040212000A0D0000D1
:00000001FF
