:1000000033C0000044C0000042C0000040C00000F7
:100010003EC000003CC000003AC0000038C00000F4
:1000200036C0000034C0000032C0000030C0000004
:100030002EC000002CC000002AC0000028C0000014
:1000400026C0000024C0000022C0000020C0000024
:100050001EC000001CC000001AC0000018C0000034
:1000600016C0000014C0000011241FBECFEFD8E05E
:10007000DEBFCDBF11E0A0E0B1E0E0E0F2E002C001
:1000800005900D92AA30B107D9F702D0B7C0B8CF0A
:100090001F93CF93DF9321982998259A2D9A3ED0CC
:1000A00012D0C8EAD1E67DD0182F90E024D080E0AD
:1000B00091E045D0812F54D086E091E040D0CE0130
:1000C0000197F1F7F0CFA0E8B0E08C9182608C93BB
:1000D000E1E8F0E0808188618083808181608083B5
:1000E00080E29EE490938700809386008C918068E4
:1000F0008C9321980895982F882311F421980895BE
:100100008E3258F4219A87E0989FC0011124885AB2
:100110009D4F909389008093880008951092C500A8
:100120008CE08093C400E0ECF0E08081826080830A
:1001300088E18093C10086E08093C2000895AC01FD
:1001400020E007C08091C00085FFFCCFE093C6008F
:100150002F5FFA01E20FF11DE081EE2399F7089578
:10016000282F8091C00085FFFCCF822F64E63AD013
:10017000805D8093C6008091C00085FFFCCF822FF8
:100180006AE030D02FD0905D9093C6008091C0007F
:1001900085FFFCCF822F6AE025D0905D9093C6004A
:1001A000089540E330E320E38091C00087FFFCCF57
:1001B0009091C6008091C00085FFFCCF9093C6004F
:1001C0009D3021F0432F322F292FEECF205D84E682
:1001D000489FC0011124280F8AE0389FC0011124D4
:1001E000820F0895991B79E004C0991F961708F0B3
:1001F000961B881F7A95C9F780950895F894FFCFCC
:0A0200006E756D3A20000D0A000033
:00000001FF
