:1000000033C0000039C0000037C0000035C0000018
:1000100033C0000031C000002FC000002DC0000020
:100020002BC0000029C0000027C0000025C0000030
:1000300023C0000021C000001FC000001DC0000040
:100040001BC0000019C0000017C0000015C0000050
:1000500013C0000011C000000FC000000DC0000060
:100060000BC0000009C0000011241FBECFEFD8E074
:10007000DEBFCDBF02D075C0C3CFCF93DF93259A2B
:100080002D9A18D03CD0C9E1D0E04AD025D088ECD8
:1000900021D080E197E2FE013197F1F70197D9F77E
:1000A00088E218D080E197E2FE013197F1F70197DD
:1000B000D9F7EBCF569A579A209A559A549A539A51
:1000C00084B5806A84BD84B5836084BD85B5826053
:1000D00085BD089588BD0895813011F45C9803C0F2
:1000E000823019F45C9A5B980895833019F45C9817
:1000F0005B9A0895843011F45C9A5B9A089510928B
:10010000C5008CE08093C400E0ECF0E08081826068
:10011000808388E18093C10086E08093C2000895C7
:1001200040E330E320E38091C00087FFFCCF909153
:10013000C6008091C00085FFFCCF9093C6009D3023
:1001400021F0432F322F292FEECF205D84E6489FE8
:10015000C0011124280F8AE0389FC0011124820FAA
:060160000895F894FFCFA2
:00000001FF
