:1000000033C000004CC000004AC0000048C00000DF
:1000100046C0000044C0000042C0000040C00000D4
:100020003EC000003CC000003AC0000038C00000E4
:1000300036C0000034C0000032C0000030C00000F4
:100040002EC000002CC000002AC0000028C0000004
:1000500026C0000024C0000022C0000020C0000014
:100060001EC000001CC0000011241FBECFEFD8E04E
:10007000DEBFCDBF11E0A0E0B1E0ECECF4E002C0E7
:1000800005900D92A637B107D9F711E0A6E7B1E0C8
:1000900001C01D92AB37B107E1F702D015C2B0CF56
:1000A000A3D160D1D9D0109276016AD190937A0110
:1000B0008093790183EF91E00197F1F700C0000090
:1000C00076D1909378018093770181E091E0DCD044
:1000D00080910001882339F38091790190917A0110
:1000E00020917701309178018C33910520F02C33E9
:1000F000310508F09FC02817390708F04BC08CE085
:1001000091E0C2D02091790130917A0180917701FC
:1001100090917801C09176018217930738F5CA3023
:1001200028F52ED18093790190937A01682F88E188
:1001300091E0EBD02091760130E0609177017091F1
:10014000780142E251E08AE291E0F0D046E966E9C6
:1001500084E07CD189EF90E00197F1F700C00000C6
:10016000809176018F5F80937601CCCFCA3008F002
:1001700068C0CC2309F465C046E966E985E066D12C
:100180001092000189EF90E00197F1F700C00000A4
:10019000C150EFCF8217930708F049C085E391E083
:1001A00073D02091770130917801809179019091FD
:1001B0007A01C09176018217930738F5CA3028F585
:1001C000F6D08093770190937801682F82E491E0D4
:1001D0009CD02091760130E06091790170917A0194
:1001E00042E251E08CE491E0A1D046E966E985E085
:1001F0002DD189EF90E00197F1F700C000008091C8
:1002000076018F5F80937601CCCFCA30D0F4CC23B7
:10021000C1F046E966E984E019D11092000189EF46
:1002200090E00197F1F700C00000C150F0CF87E5E2
:1002300091E002C085E691E027D040E060E080E0F8
:1002400005D187E893E10197F1F700C0000040E095
:1002500060E080E0FBD027CF1092C5008CE0809357
:10026000C400E0ECF0E080818260808388E18093CC
:10027000C10086E08093C20008959091C00095FF70
:10028000FCCF8093C60008951F93CF93DF93EC01BA
:1002900010E0FE01E10FF11D8081882319F0EDDFF0
:1002A0001F5FF7CFDF91CF911F9108950F931F9399
:1002B000CF93DF93EC0160E177E2F2D080E3860F29
:1002C000DCDFCE0168EE73E0EBD0CB010AE010E09A
:1002D000B801E6D0805DD1DFCE0164E670E0E0D009
:1002E000CB01B801DDD0805DC8DFCE01B801D8D028
:1002F000C82FCB01B801D4D0805DBFDF80E38C0F65
:10030000DF91CF911F910F91B8CFCF93DF931F92C1
:10031000CDB7DEB76983B8DF6981862F90E0C6DF8D
:1003200081E791E00F90DF91CF91AECFEF92FF92F6
:100330000F931F93CF93DF93EB017A018901A4DF21
:10034000CE01B4DF84E791E09FDFC7019DDFC801E4
:10035000ADDF81E791E0DF91CF911F910F91FF9089
:10036000EF9092CF249A259A3D983A98239A3C9AF6
:1003700022983B98E1E8F0E08081816080830895D5
:100380002B9A83E08A95F1F700002B981A9BFECFF9
:1003900010928500109284001A99FECF80918400FB
:1003A000909185006AE370E07BD0CB010895449A78
:1003B00083E08A95F1F700004498339BFECF1092BA
:1003C0008500109284003399FECF80918400909133
:1003D00085006AE370E064D0CB0108955F98289AA5
:1003E00008955C985B9A0895569A579A209A559A60
:1003F000549A539A84B5806A84BD84B5836084BD61
:1004000085B5826085BD0895813011F45F9803C081
:10041000823019F45F9A28980895833009F4DECF6A
:10042000843011F45F9A289A0895813011F45C9811
:1004300003C0823019F45C9A5B980895833009F404
:10044000D0CF843011F45C9A5B9A0895CF93DF93F8
:10045000D62FC42F823091F030F4882359F08130A8
:10046000E1F4BCDF14C0843081F058F08530A9F489
:10047000B5DF0FC084E0C8DF84E00CC082E0C4DFD9
:1004800008C081E0C1DF81E005C082E0BDDFA9DFF7
:1004900002C082E0CADFD7BDC8BDDF91CF91089509
:1004A000AA1BBB1B51E107C0AA1FBB1FA617B7079A
:1004B00010F0A61BB70B881F991F5A95A9F78095B6
:0C04C0009095BC01CD010895F894FFCF89
:1004CC0001546F70206C6F6F700A0D004C65667470
:1004DC00206C6F6F700A0D006C6C536F6E69633A11
:1004EC002000636F756E743A20006C72536F6E69E6
:1004FC00633A203A005269676874206C6F6F700A17
:10050C000D006C72536F6E69633A20006C6C536F04
:10051C006E69633A203A00476F6F6420656E6F75A1
:10052C0067680A0D004F7574206F662072616E67E4
:06053C00650A0D00090034
:00000001FF
