:1000000033C000004CC000004AC0000048C00000DF
:1000100046C0000044C0000042C0000040C00000D4
:100020003EC000003CC000003AC0000038C00000E4
:1000300036C0000034C0000032C0000030C00000F4
:100040002EC000002CC000002AC0000028C0000004
:1000500026C0000024C0000022C0000020C0000014
:100060001EC000001CC0000011241FBECFEFD8E04E
:10007000DEBFCDBF11E0A0E0B1E0ECE7F4E002C0EC
:1000800005900D92A436B107D9F711E0A4E6B1E0CE
:1000900001C01D92A936B107E1F754D0EDC1B0CF30
:1000A000CF92DF92EF92FF920F931F93CF93DF9344
:1000B000EC017B016A01122F488159819091640102
:1000C000E416F50618F5943108F5F6010995682F40
:1000D0008883998381E091E0F0D02091640130E041
:1000E0004AE051E0B70182E191E0F8D04FEA6FEACF
:1000F000812F84D189EF90E00197F1F700C00000D3
:10010000909164019F5F90936401D6CFC92F943181
:1001100080F4CC2371F04FEA6FEA802F6FD11092F8
:100120000001E3ECF9E03197F1F700C00000C150A5
:10013000F0CFDF91CF911F910F91FF90EF90DF9063
:10014000CF90089529D1E6D05FD010926401F0D00D
:10015000909368018093670183EF91E00197F1F735
:1001600000C00000FCD0909366018093650180E29E
:1001700091E062D080910001882339F3809167017A
:100180009091680120916501309166018C33910551
:1001900018F02C33310530F52817390770F48BE24D
:1001A00091E04AD0609165017091660105E024E01C
:1001B00048E951E087E691E010C08217930778F490
:1001C00087E391E039D0609167017091680104E0A4
:1001D00025E04FEA51E085E691E062DF0AC084E461
:1001E00091E002C082E591E027D040E060E080E04D
:1001F00005D187E893E10197F1F700C0000040E0E6
:1002000060E080E0FBD0A1CF1092C5008CE080932D
:10021000C400E0ECF0E080818260808388E180931C
:10022000C10086E08093C20008959091C00095FFC0
:10023000FCCF8093C60008951F93CF93DF93EC010A
:1002400010E0FE01E10FF11D8081882319F0EDDF40
:100250001F5FF7CFDF91CF911F9108950F931F93E9
:10026000CF93DF93EC0160E177E2F2D080E3860F79
:10027000DCDFCE0168EE73E0EBD0CB010AE010E0EA
:10028000B801E6D0805DD1DFCE0164E670E0E0D059
:10029000CB01B801DDD0805DC8DFCE01B801D8D078
:1002A000C82FCB01B801D4D0805DBFDF80E38C0FB5
:1002B000DF91CF911F910F91B8CFCF93DF931F9212
:1002C000CDB7DEB76983B8DF6981862F90E0C6DFDE
:1002D0008EE591E00F90DF91CF91AECFEF92FF923C
:1002E0000F931F93CF93DF93EB017A018901A4DF72
:1002F000CE01B4DF81E691E09FDFC7019DDFC80139
:10030000ADDF8EE591E0DF91CF911F910F91FF90CE
:10031000EF9092CF249A259A3D983A98239A3C9A46
:1003200022983B98E1E8F0E0808181608083089525
:100330002B9A83E08A95F1F700002B981A9BFECF49
:1003400010928500109284001A99FECF809184004B
:10035000909185006AE370E07BD0CB010895449AC8
:1003600083E08A95F1F700004498339BFECF10920A
:100370008500109284003399FECF80918400909183
:1003800085006AE370E064D0CB0108955F98289AF5
:1003900008955C985B9A0895569A579A209A559AB0
:1003A000549A539A84B5806A84BD84B5836084BDB1
:1003B00085B5826085BD0895813011F45F9803C0D2
:1003C000823019F45F9A28980895833009F4DECFBB
:1003D000843011F45F9A289A0895813011F45C9862
:1003E00003C0823019F45C9A5B980895833009F455
:1003F000D0CF843011F45C9A5B9A0895CF93DF9349
:10040000D62FC42F823091F030F4882359F08130F8
:10041000E1F4BCDF14C0843081F058F08530A9F4D9
:10042000B5DF0FC084E0C8DF84E00CC082E0C4DF29
:1004300008C081E0C1DF81E005C082E0BDDFA9DF47
:1004400002C082E0CADFD7BDC8BDDF91CF91089559
:10045000AA1BBB1B51E107C0AA1FBB1FA617B707EA
:1004600010F0A61BB70B881F991F5A95A9F7809506
:0C0470009095BC01CD010895F894FFCFD9
:10047C00016C536F6E69633A2000636F756E743A4A
:10048C002000746172676574446973743A203A0091
:10049C00546F70206C6F6F700A0D004C6566742081
:1004AC006C6F6F700A0D005269676874206C6F6F07
:1004BC00700A0D00476F6F6420656E6F7567680A70
:1004CC000D004F7574206F662072616E67650A0DA2
:0404DC000009000013
:00000001FF
