:1000000033C000004CC000004AC0000048C00000DF
:1000100046C0000044C0000042C0000062C00000B2
:100020003EC000003CC000003AC0000038C00000E4
:1000300036C0000034C0000032C0000030C00000F4
:100040002EC000002CC000002AC0000028C0000004
:1000500026C0000024C0000022C0000020C0000014
:100060001EC000001CC0000011241FBECFEFD8E04E
:10007000DEBFCDBF11E0A0E0B1E0E4E1F1E002C0FD
:1000800005900D92A030B107D9F711E0A0E0B1E0E2
:1000900001C01D92A230B107E1F702D039C0B0CF44
:1000A00052985A9A219A8AE0299AE3E2F4EF31971A
:1000B000F1F700C000002998E3E2F4EF3197F1F77F
:1000C00000C00000815081F792E04A99FECF85B1CF
:1000D000892785B9E9EFF0E03197F1F700C000001A
:1000E000F4CF1F920F920FB60F9211248F939F930C
:1000F00080910001909101010196909301018093FC
:1001000000019F918F910F900FBE0F901F90189537
:04011000F894FFCF91
:00000001FF
