:100000005DC0000076C0000074C0000072C0000037
:1000100070C000006EC000006CC000006AC000002C
:1000200068C0000066C0000064C0000062C000003C
:1000300060C000005EC0000007C200005AC000009F
:1000400058C0000056C0000054C0000052C000005C
:1000500050C000004EC000004CC000004AC000006C
:1000600048C0000046C0000009000A000B000B0059
:100070000C000F0012000000000000000000000053
:100080000000000009000B000C000C000D000F0028
:10009000120000000000000000000000000000004E
:1000A000F40158028A02BC02EE02200352038403C8
:1000B000B603E8031A044C047E04B00411241FBEE6
:1000C000CFEFD8E0DEBFCDBF11E0A0E0B1E0E8E6C1
:1000D000F6E002C005900D92A833B107D9F711E000
:1000E000A8E3B1E001C01D92AE33B107E1F711D032
:1000F000B9C286CF20E030E248EA51E685B18327D5
:1001000085B9CA010197F1F72F5F2830B9F72D9A09
:1001100008956F927F928F929F92AF92BF92CF92EB
:10012000DF92EF92FF920F931F93CF93DF93259A65
:100130002D9AF8D00FD175D1E8D10AD2DBDF219A00
:10014000E0EAF0E085919491909389008093880093
:1001500080E197E20197F1F72198E8E6F0E08591D8
:10016000949190933B0180933A01E4E8F0E085910B
:100170009491909339018093380124ED822E20E3ED
:10018000922E98EA692E91E6792E52C074D18C0194
:1001900097D15C0180E0C7D16C0181E0C4D1EC0152
:1001A00080E091E0E8D080913A0190913B01F4D059
:1001B000C4010197F1F782E191E0DDD0C801ECD0F4
:1001C000C4010197F1F782E291E0D5D080913A0124
:1001D00090913B010A97801B910B815F9F4FF0F03C
:1001E00080913801909139010A978A199B09815FA2
:1001F0009F4FA0F086EBC81683E0D80680F4C65B5C
:10020000D34068F4F39485E291E0B5D08F2D90E06F
:10021000C3D082E291E0AFD0EE2401C0FF24C3013D
:100220000197F1F749E04F1508F0B0CFEE2021F02B
:10023000EE24E394FF24AACF219AEAEBF0E0859123
:100240009491909389008093880080E197E229E15E
:1002500030E0F9013197F1F70197D9F7E0EBF0E0E1
:10026000859194919093890080938800E8E7F0E06D
:100270008591949190933B0180933A01E4E9F0E0F9
:1002800085919491909339018093380181E06CEDD0
:100290004CED94D184EDE82E80E3F82EECD0EC0107
:1002A0000FD16C0180E03FD18C0181E03CD130E086
:1002B000075B134008F031E020E0875B934008F0D3
:1002C00021E0332321F0222311F082E007C0332301
:1002D00011F085E003C0222321F084E068EC48ECB3
:1002E0006DD180913A0190913B010B978C1B9D0B36
:1002F0008F5E9F4F80F480913801909139010B9768
:100300008C199D098F5E9F4F10F482E001C085E03B
:1003100068EC48EC53D183E391E02DD0C7010197FD
:10032000F1F7BCCFA0E8B0E08C9182608C93E1E85B
:10033000F0E080818861808380818160808380E2B9
:100340009EE490938700809386008C9180688C93C4
:10035000219808951092C5008CE08093C400E0ECD1
:10036000F0E080818260808388E18093C10086E034
:100370008093C2000895AC0120E007C08091C000C6
:1003800085FFFCCFE093C6002F5FFA01E20FF11D5D
:10039000E081EE2399F708959C018091C00085FFCC
:1003A000FCCFC90160E177E236D1605D6093C600A1
:1003B0008091C00085FFFCCFC90168EE73E02BD1AE
:1003C000CB016AE070E027D1805D8093C600809108
:1003D000C00085FFFCCFC90164E670E01CD1CB01F1
:1003E0006AE070E018D1805D8093C6008091C00003
:1003F00085FFFCCFC9016AE070E00DD1CB016AE056
:1004000070E009D1805D8093C6008091C00085FFB7
:10041000FCCFC9016AE070E0FED0805D8093C60029
:100420000895239A3C9A24983D9884B5826084BDAF
:1004300085B5816085BDEEE6F0E0808182608083D5
:10044000789484E687BD08951F920F920FB60F929D
:1004500011248F939F9380913C0190913D010196CF
:1004600090933D0180933C019F918F910F900FBE1F
:100470000F901F90189510923D0110923C012B9AFD
:1004800083E08A95F1F72B981C9BFECF16BC1C9934
:10049000FECF26B540913C0150913D01225084E6AB
:1004A00090E0BC01469FC001479F900D569F900D64
:1004B0001124820F911D6AE370E0C1D0CB01089531
:1004C00010923D0110923C01449A83E08A95F1F725
:1004D0004498359BFECF16BC3599FECF26B540918A
:1004E0003C0150913D01225084E690E0BC01469FC2
:1004F000C001479F900D569F900D1124820F911DB2
:100500006AE370E09CD0CB010895ECE7F0E08081D5
:1005100080648083EAE7F0E080818360808380816B
:1005200080688083089590917C00907F982B9093B1
:100530007C0080917A00806480937A0080917A00B8
:1005400086FDFCCF2091780030917900C901089593
:10055000569A579A209A559A549A539A84B5806A13
:1005600084BD84B5836084BD85B5826085BD0895F2
:10057000813011F45F9803C0823019F45F9A289893
:100580000895833019F45F98289A0895843011F4FF
:100590005F9A289A0895813011F45C9803C08230E4
:1005A00019F45C9A5B980895833019F45C985B9A0F
:1005B0000895843011F45C9A5B9A08950F931F9309
:1005C000162F042F8230A1F0833028F4882351F0B5
:1005D0008130F1F40BC0843089F0843058F08530DC
:1005E000B9F410C084E0C4DF84E00FC083E00BC026
:1005F00082E005C081E0BCDF81E007C083E0B8DFB6
:1006000082E003C082E0B4DF83E0C5DF17BD08BD30
:100610001F910F910895AA1BBB1B51E107C0AA1F90
:10062000BB1FA617B70710F0A61BB70B881F991F93
:100630005A95A9F780959095BC01CD01089597FB37
:10064000092E07260AD077FD04D0E5DF06D000206A
:100650001AF4709561957F4F0895F6F790958195FE
:080660009F4F0895F894FFCFAD
:100668006C657474536F6E69635468726573683A25
:1006780020006C657474536F6E6963526561643AE7
:1006880020000A0D00506F735F6F6E655F636E74B4
:080698003A20006C6F6F700046
:00000001FF
