:100000005DC0000076C0000074C0000072C0000037
:1000100070C000006EC000006CC000008FC2000005
:1000200068C0000066C0000064C0000062C000003C
:1000300060C000005EC000005CC000005AC000004C
:1000400058C0000056C0000054C0000052C000005C
:1000500050C000004EC000004CC000004AC000006C
:1000600048C0000046C0000009000A000B000B0059
:100070000C000F0012000000000000000000000053
:100080000000000009000B000C000C000D000F0028
:10009000120000000000000000000000000000004E
:1000A000F40158028A02BC02EE02200352038403C8
:1000B000B603E8031A044C047E04B00411241FBEE6
:1000C000CFEFD8E0DEBFCDBF11E0A0E0B1E0E4E6C5
:1000D000F7E002C005900D92AE38B107D9F711E0F4
:1000E000AEE8B1E001C01D92A039B107E1F7A0D0A0
:1000F00037C386CF20E030E248EA51E685B1832756
:1001000085B9CA010197F1F72F5F2830B9F72D9A09
:100110000895875B934018F4675B734050F080E06C
:1001200060918C0140918D01C7D288EA91E60197D8
:10013000F1F708956F927F929F92AF92BF92CF9204
:10014000DF92EF92FF920F931F93CF93DF93219A49
:10015000E0EAF0E085919491909389008093880083
:1001600080E197E20197F1F721989924E8E6F0E021
:10017000A590B490E4E8F0E0C590D49084ED682EAA
:1001800080E3782EF2D1A816B90620F48C010A1962
:100190001B0909C08A159B0518F000E010E003C098
:1001A0008501081B190B08D2C816D90620F4EC01EA
:1001B000CC19DD0909C08C159D0518F0C0E0D0E010
:1001C00003C0E601C81BD90B80E02BD27C0181E083
:1001D00028D2043060F4C43050F426EBE21623E059
:1001E000F20630F4865B934018F4939401C099248E
:1001F000C3010197F1F783E1891508F0C3CFDF91BF
:10020000CF911F910F91FF90EF90DF90CF90BF9013
:10021000AF909F907F906F9008951F93162F20D1DD
:10022000812F90E02ED180E091E01AD11F910895A6
:100230002F923F924F925F927F928F929F92AF92B6
:10024000BF92CF92DF92EF92FF920F931F93CF93C3
:10025000DF93259A2D9ADBD0F2D058D1D4D1F6D1A4
:1002600049DF68DF219AECEAF0E085919491909360
:1002700089008093880081E060918C0140918D011C
:100280001BD27724E4E7F0E0A590B490E0E9F0E039
:10029000C590D49020E1222E27E2322E94EC492EF4
:1002A00099E0592E80E0BDD18C0181E0BAD17C016A
:1002B0005CD1A816B90620F4BC016A197B0909C0F3
:1002C0008A159B0518F060E070E003C0B501681B5B
:1002D000790B862E71D1C816D90620F4EC01CC1901
:1002E000DD0909C08C159D0518F0C0E0D0E003C001
:1002F000E601C81BD90B83E091E0682D8EDF35D174
:10030000682F80E191E089DF8DE191E060918C01BF
:1003100084DF8AE291E06C2F80DF4ED1682F88E382
:1003200091E07BDF86E491E060918D0176DF89E0EA
:10033000881580F18C17D8F0C801B701EADE8091EA
:100340008C018C3D19F0885D80938C0180918D012A
:100350008C3D19F0885D80938D0181E060918C0166
:1003600040918D01A9D184E591E07AD04CC0C801BB
:10037000B701CFDE80E691E073D080918C018823B5
:1003800019F0885280938C0180918D018C3DC9F0C9
:10039000885D15C089E08C17D8F0C801B701B9DEB7
:1003A0008BE691E05DD080918C018C3D19F0885DE9
:1003B00080938C0180918D01882319F0885280935D
:1003C0008D0181E060918C0140918D0175D11BC040
:1003D00084E67816B9F4C801B7019BDE80E060E0DE
:1003E00040E06AD188EA91E60197F1F782E068E798
:1003F00048E762D1C1010197F1F785E791E030D07C
:10040000772401C07394C2010197F1F74BCFA0E8A4
:10041000B0E08C9182608C93E1E8F0E080818861AB
:10042000808380818160808380E29EE49093870056
:10043000809386008C9180688C9321980895109207
:10044000C5008CE08093C400E0ECF0E08081826025
:10045000808388E18093C10086E08093C200089584
:10046000AC0120E007C08091C00085FFFCCFE09385
:10047000C6002F5FFA01E20FF11DE081EE2399F72C
:1004800008959C018091C00085FFFCCFC90160E107
:1004900077E23FD1605D6093C6008091C00085FF28
:1004A000FCCFC90168EE73E034D1CB016AE070E0A3
:1004B00030D1805D8093C6008091C00085FFFCCF65
:1004C000C90164E670E025D1CB016AE070E021D17A
:1004D000805D8093C6008091C00085FFFCCFC9017C
:1004E0006AE070E016D1CB016AE070E012D1805D65
:1004F0008093C6008091C00085FFFCCFC9016AE0EF
:1005000070E007D1805D8093C6000895239A3C9ADD
:1005100024983D98E0EBF0E0808182608083E1EBFD
:10052000F0E0808181608083E0E7F0E0808182609C
:100530008083789484E68093B30008951F920F928D
:100540000FB60F9211248F939F9380918E019091FB
:100550008F01019690938F0180938E019F918F91CF
:100560000F900FBE0F901F90189510928F01109250
:100570008E012B9A83E08A95F1F72B981C9BFECF76
:100580001092B2001C99FECF2091B20040918E01D2
:1005900050918F01225084E690E0BC01469FC0013B
:1005A000479F900D569F900D1124820F911D6AE375
:1005B00070E0C3D0CB01089510928F0110928E018C
:1005C000449A83E08A95F1F74498359BFECF1092C8
:1005D000B2003599FECF2091B20040918E0150912A
:1005E0008F01225084E690E0BC01469FC001479FE6
:1005F000900D569F900D1124820F911D6AE370E0BB
:100600009CD0CB010895ECE7F0E08081806480838A
:10061000EAE7F0E080818360808380818068808366
:10062000089590917C00907F982B90937C0080910E
:100630007A00806480937A0080917A0086FDFCCFF6
:100640002091780030917900C9010895569A579AFF
:10065000209A559A549A539A84B5806A84BD84B579
:10066000836084BD85B5826085BD0895813011F4B5
:100670005F9803C0823019F45F9A289808958330F8
:1006800019F45F98289A0895843011F45F9A289A93
:100690000895813011F45C9803C0823019F45C9A9B
:1006A0005B980895833019F45C985B9A08958430C0
:1006B00011F45C9A5B9A08950F931F93162F042FE1
:1006C0008230A1F0833028F4882351F08130F1F496
:1006D0000BC0843089F0843058F08530B9F410C0F4
:1006E00084E0C4DF84E00FC083E00BC082E005C07B
:1006F00081E0BCDF81E007C083E0B8DF82E003C0B7
:1007000082E0B4DF83E0C5DF17BD08BD1F910F9104
:100710000895AA1BBB1B51E107C0AA1FBB1FA61748
:10072000B70710F0A61BB70B881F991F5A95A9F79A
:1007300080959095BC01CD01089597FB092E072661
:100740000AD077FD04D0E5DF06D000201AF47095BA
:1007500061957F4F0895F6F7909581959F4F089585
:04076000F894FFCF3B
:100764000A0D006C6566742064656C74613A20003F
:100774006C65667420736F6E69633A20006C6566FD
:10078400742073706565643A200072696768742028
:1007940064656C74613A2000726967687420736FD1
:1007A4006E69633A200072696768742073706565C6
:1007B400643A2000676F207374726169676874001B
:1007C400476F2072696768740A0D00476F206C6573
:1007D40066740A0D004272616B652D4261636B772A
:0E07E4006172642D5069766F740A0D005050DA
:00000001FF
