:100000005DC0000076C0000074C0000072C0000037
:1000100070C000006EC000006CC0000076C200001E
:1000200068C0000066C0000064C0000062C000003C
:1000300060C000005EC000005CC000005AC000004C
:1000400058C0000056C0000054C0000052C000005C
:1000500050C000004EC000004CC000004AC000006C
:1000600048C0000046C00000F40158028A02BC02E9
:10007000EE02200352038403B603E8031A044C047F
:100080007E04B00409000B000C000C000D000F00F2
:100090000E00000000000000000000000000000052
:1000A00009000A000B000B000C000F000E000000FE
:1000B00000000000000000000000000011241FBE2E
:1000C000CFEFD8E0DEBFCDBF11E0A0E0B1E0E6EBBE
:1000D000F9E002C005900D92AE36B107D9F711E0F4
:1000E000AEE6B1E001C01D92A037B107E1F7D1D073
:1000F00060C486CFCF92DF92EF92FF921F93CF938F
:10010000DF9300D000D0CDB7DEB79A01AB01BC01C0
:1001100080E090E029833A834B835C8398D32981E4
:100120003A814B815C81FFD26B017C0120E030E0A1
:10013000A901F5D28823E9F020E030E040E85EE351
:10014000C701B601ECD287FD16C020E030E040E0E8
:100150005FE3C701B601E3D287FD0FC020E030E0C6
:1001600040E45FE3C701B601DAD287FF08C016E9B1
:1001700007C010E005C012E303C014E601C018EC8C
:10018000C701B60138D380E091E096D1612F8CE0B1
:1001900091E092D1812F0F900F900F900F90DF91EF
:1001A000CF911F91FF90EF90DF90CF900895681747
:1001B000790718F4861B970B08958617970728F47C
:1001C0009B01281B390BC901089580E090E0089538
:1001D000BF92CF92DF92EF92FF920F931F93CF9334
:1001E000DF93219AE8E6F0E085919491909389005D
:1001F000809388008FE097E20197F1F700C000003C
:100200002198D12CE0EAF0E0C591D491E4E8F0E047
:100210000591149191D1BE01CADFC82EB1D1B801A8
:10022000C6DFB82E80E0DED17C0181E0DBD123E0A7
:100230002C1560F02B1550F0863B934040F486EB74
:10024000E81683E0F80618F4D39401C0D12C87E8AF
:1002500093E10197F1F700C0000093E19D15D0F6FE
:10026000DF91CF911F910F91FF90EF90DF90CF9092
:10027000BF90089588E020E295B1922795B9E7EA0A
:10028000F1E63197F1F700C000008150A9F72D9AEF
:100290000895259A2D9A9FD0B6D01FD195D1BCD163
:1002A000E9DF96DF219AE4E7F0E08591949190935D
:1002B00089008093880048E768E781E0DFD180E02B
:1002C00091D181E08FD138D15BD180E291E0B3D080
:1002D00040E050E068EC72E480E090E00BDF2FE358
:1002E0008DE093E0215080409040E1F700C0000095
:1002F0008BE291E0A0D040E050E068EC72E48AE04C
:1003000090E0F8DE2FE38DE093E0215080409040B4
:10031000E1F700C0000086E391E08DD040E050E0BE
:1003200068EC72E48EE190E0E5DE2FE38DE093E08F
:10033000215080409040E1F700C0000081E491E04E
:100340007AD040E050E068EC72E482E390E0D2DEE4
:100350002FE38DE093E0215080409040E1F700C012
:1003600000008CE491E067D040E050E068EC72E47B
:1003700083E390E0BFDE2FE38DE093E021508040E7
:100380009040E1F700C0000087E591E054D040E0E4
:1003900050E068EC72E48CE490E0ACDE2FE38DE09A
:1003A00093E0215080409040E1F700C0000082E6D9
:1003B00091E041D040E050E068EC72E484E690E0E7
:1003C00099DE2FE38DE093E0215080409040E1F7EB
:1003D00000C0000074CFE0E8F0E08081826080839C
:1003E000A1E8B0E08C9188618C938C9181608C93B2
:1003F00080E29EE4909387008093860080818068ED
:100400008083219808951092C5008CE08093C400E9
:10041000E0ECF0E080818260808388E18093C1001D
:1004200086E08093C20008959091C00095FFFCCFB4
:100430008093C60008951F93CF93DF93EC0110E0E3
:10044000FE01E10FF11D8081882319F0EDDF1F5FB0
:10045000F7CFDF91CF911F9108950F931F93CF9303
:10046000DF93EC0160E177E233D180E3860FDCDFDC
:10047000CE0168EE73E02CD1CB010AE010E0B801A8
:1004800027D1805DD1DFCE0164E670E021D1CB01C0
:10049000B8011ED1805DC8DFCE01B80119D1C82FC7
:1004A000CB01B80115D1805DBFDF80E38C0FDF91F8
:1004B000CF911F910F91B8CFCF93DF931F92CDB7FC
:1004C000DEB76983B8DF6981862F90E0C6DF88E2F6
:1004D00091E00F90DF91CF91AECF239A3C9A249870
:1004E0003D98E0EBF0E0808182608083E1EBF0E01A
:1004F000808181608083E0E7F0E08081826080839A
:10050000789484E68093B30008951F920F920FB6FB
:100510000F9211248F939F9380916E0190916F01A0
:10052000019690936F0180936E019F918F910F9030
:100530000FBE0F901F90189510926F0110926E01D0
:100540002B9A83E08A95F1F700002B981C9BFECF35
:100550001092B2001C99FECF4091B20020916E0122
:1005600030916F01425054E6529FC001539F900D4D
:100570001124840F911D6AE370E0BED0CB01089571
:1005800010926F0110926E01449A83E08A95F1F700
:1005900000004498359BFECF1092B2003599FECFF3
:1005A0004091B20020916E0130916F01425054E6AB
:1005B000529FC001539F900D1124840F911D6AE337
:1005C00070E09AD0CB010895ECE7F0E08081806480
:1005D0008083EAE7F0E080818360808380818068A7
:1005E0008083089590917C00907F982B90937C005D
:1005F00080917A00806480937A0080917A0086FDF1
:10060000FCCF809178009091790008955F98289AA6
:1006100008955C985B9A0895569A579A209A559A2D
:10062000549A539A84B5806A84BD84B5836084BD2E
:1006300085B5826085BD0895813011F45F9803C04F
:10064000823019F45F9A28980895833009F4DECF38
:10065000843011F45F9A289A0895813011F45C98DF
:1006600003C0823019F45C9A5B980895833009F4D2
:10067000D0CF843011F45C9A5B9A0895CF93DF93C6
:10068000D62FC42F823099F030F4882361F0813066
:10069000E1F4BCDF17C0843089F060F08530A9F444
:1006A00082E0CADF0FC084E0C7DF84E009C082E0D7
:1006B000C3DF05C081E0C0DF81E002C0A7DF82E0C8
:1006C000CCDF01C0A6DFD7BDC8BDDF91CF910895B3
:1006D000AA1BBB1B51E107C0AA1FBB1FA617B70768
:1006E00010F0A61BB70B881F991F5A95A9F7809584
:1006F0009095BC01CD01089597FB072E16F4009448
:1007000006D077FD08D0E4DF07FC05D03EF49095D5
:1007100081959F4F0895709561957F4F0895D4D02E
:1007200008F481E008950CD00AC102D140F0F9D05C
:1007300030F021F45F3F19F0EBC0511134C1EEC02D
:100740000FD198F39923C9F35523B1F3951B550B9A
:10075000BB27AA2762177307840738F09F5F5F4F94
:10076000220F331F441FAA1FA9F333D00E2E3AF0D5
:10077000E0E830D091505040E695001CCAF729D0EF
:10078000FE2F27D0660F771F881FBB1F261737073E
:100790004807AB07B0E809F0BB0B802DBF01FF276E
:1007A00093585F4F2AF09E3F510568F0B1C0FBC0DF
:1007B0005F3FECF3983EDCF3869577956795B795A8
:1007C000F7959F5FC9F7880F911D9695879597F9C3
:1007D0000895E1E0660F771F881FBB1F621773073C
:1007E0008407BA0720F0621B730B840BBA0BEE1F51
:1007F00088F7E0950895BCD088F09F5790F0B92F06
:100800009927B751A0F0D1F0660F771F881F991F65
:100810001AF0BA95C9F712C0B13081F0C3D0B1E077
:100820000895C0C0672F782F8827B85F39F0B93F87
:10083000CCF3869577956795B395D9F73EF4909567
:100840008095709561957F4F8F4F9F4F0895E894E5
:1008500009C097FB3EF490958095709561957F4F08
:100860008F4F9F4F9923A9F0F92F96E9BB279395B6
:10087000F695879577956795B795F111F8CFFAF4C6
:10088000BB0F11F460FF1BC06F5F7F4F8F4F9F4FF7
:1008900016C0882311F096E911C0772321F09EE855
:1008A000872F762F05C0662371F096E8862F70E0BB
:1008B00060E02AF09A95660F771F881FDAF7880F95
:1008C0009695879597F90895990F0008550FAA0BEB
:1008D000E0E8FEEF16161706E807F907C0F0121653
:1008E0001306E407F50798F0621B730B840B950B56
:1008F00039F40A2661F0232B242B252B21F40895AB
:100900000A2609F4A140A6958FEF811D811D089547
:1009100097F99F6780E870E060E008959FEF80ECB2
:10092000089500240A941616170618060906089555
:1009300000240A9412161306140605060895092EBB
:100940000394000C11F4882352F0BB0F40F4BF2B2A
:1009500011F460FF04C06F5F7F4F8F4F9F4F08956A
:1009600057FD9058440F551F59F05F3F71F0479560
:10097000880F97FB991F61F09F3F79F08795089545
:10098000121613061406551FF2CF4695F1DF08C064
:10099000161617061806991FF1CF86957105610581
:1009A00008940895E894BB2766277727CB0197F929
:0609B0000895F894FFCF4A
:1009B60074657374526174696F3A20007265747558
:1009C600726E53706565643A20004272616B650011
:1009D6005465737420313A200A0D005465737420EF
:1009E600323A200A0D005465737420333A200A0DFA
:1009F600005465737420343A200A0D0054657374EC
:100A060020353A200A0D005465737420363A200AC0
:0E0A16000D005465737420373A200A0D00005D
:00000001FF
