:1000000033C000004CC000004AC0000048C00000DF
:1000100046C0000044C0000042C0000040C00000D4
:100020003EC000003CC000003AC0000038C00000E4
:1000300036C0000034C0000032C0000030C00000F4
:100040002EC000002CC000002AC0000028C0000004
:1000500026C0000024C0000022C0000020C0000014
:100060001EC000001CC0000011241FBECFEFD8E04E
:10007000DEBFCDBF11E0A0E0B1E0E6E0F8E002C0F5
:1000800005900D92AC3AB107D9F711E0ACEAB1E0B6
:1000900001C01D92A03CB107E1F748D1B2C3B0CF77
:1000A0008091BE019091BF01873B934038F48091CD
:1000B000BC019091BD01873B934098F146E966E908
:1000C00082E061D38FE59AEE20E08150904020409D
:1000D000E1F700C000002091BE013091BF01809186
:1000E000BC019091BD0146EE66EE8217930710F4B5
:1000F00084E001C085E047D38FEF90E722E0815094
:1001000090402040E1F700C000001092030140E061
:1001100060E080E038D387E893E10197F1F700C011
:10012000000008956817790718F4861B970B089547
:100130008617970728F49B01281B390BC9010895DE
:1001400080E090E00895CF93DF93EC01BAD187E887
:1001500093E10197F1F700C00000219AD093890044
:10016000C09388009FE72AE186E0915020408040BC
:10017000E1F700C000002198DF91CF9140C2CF92FB
:10018000DF92EF92FF920F931F93CF93DF93209113
:10019000B6019091B7014091B4013091B501882327
:1001A00069F0C22FD92F042F132F35E0D32E44E04E
:1001B000C42E5BE3E52E53E0F52E0CC0C42FD32FE5
:1001C000022F192F84E0D82E95E0C92E22E5E22EC9
:1001D00023E0F22E98012C5F3F4F309301012093D2
:1001E00000018091AC010C171D0718F5843108F54A
:1001F000F7010995C82FD92F682F84E791E0D2D154
:100200002091AC0130E044E051E0B8018CE091E095
:10021000DAD14FEA6FEA8C2DB6D289EF90E00197E0
:10022000F1F700C000009091AC019F5F9093AC018A
:10023000D8CFC82F843180F4CC2361F04FEA6FEA25
:100240008D2DA1D2E3ECF9E03197F1F700C0000069
:10025000C150F2CF10920201DF91CF911F910F9107
:10026000FF90EF90DF90CF9008951092AC0103D2F1
:100270009093B7018093B60183EF91E00197F1F776
:1002800000C000000FD29093B5018093B4018AE1C1
:1002900091E047D1209102018091B6019091B70180
:1002A000222361F12091B4013091B5018C33910585
:1002B00018F02C333105A0F42817390728F485E20B
:1002C00091E02FD181E007C08217930730F481E3DA
:1002D00091E027D180E053DF0AC08EE391E002C0B5
:1002E0008CE491E01ED140EA60EA81E04CD287E8DC
:1002F00093E10197F1F700C0000014C020910001C4
:10030000309101018217930738F08091B4019091E8
:10031000B5018217930718F41092020103C081E01F
:100320008093020140EA60EA81E02DC28CED95E005
:100330000ADF2FE38DE093E0215080409040E1F709
:1003400000C00000D6D05BD1C4D1EBD186EB93E0E6
:10035000FADE80E0CCD19093BF018093BE0181E0B2
:10036000C6D19093BD018093BC0157D19093BB013E
:100370008093BA0187E99AE30197F1F700C0000082
:1003800063D19093B9018093B8018ADE69E070E08F
:100390008091BA019091BB01C5DEC82FD0E0D09307
:1003A000B301C093B20168E070E08091B801909110
:1003B000B901B8DE90E09093B1018093B001269727
:1003C00080F5069720F56CDE56D19093B7018093A7
:1003D000B60187E99AE30197F1F700C0000062D106
:1003E0009093B5018093B4018BE591E09AD0209170
:1003F000B4013091B5016091B6017091B70149E641
:1004000051E083E791E0DFD030DF81E025C048DEB6
:100410008DE791E086D048EC68EC84E0B4D184E0CC
:100420001BC0069750F43CDE87E891E07AD048EC98
:1004300068EC85E0A8D185E00FC032DE40EA60EAD2
:1004400082E0A1D183ED90E30197F1F700C00000B5
:1004500082E991E066D082E08093AF019091AF0194
:100460008091AE01981302C09230F1F48091AD01F9
:100470008230A1F49230A1F448EC68EC85E083D19D
:1004800085E08093AF011092AD011092030187EADD
:1004900091E60197F1F700C0000008C0843061F3D5
:1004A0008F5F8093AD0102C01092AD018091AF01CA
:1004B0008093AE018FE19EE40197F1F700C0000048
:1004C00048CFE0E8F0E0808182608083A1E8B0E07E
:1004D0008C9188618C938C9181608C9380E29EE4F6
:1004E0009093870080938600808180688083219824
:1004F00008951092C5008CE08093C400E0ECF0E019
:1005000080818260808388E18093C10086E080934F
:10051000C20008959091C00095FFFCCF8093C60063
:1005200008951F93CF93DF93EC0110E0FE01E10FDC
:10053000F11D8081882319F0EDDF1F5FF7CFDF9178
:10054000CF911F9108950F931F93CF93DF93EC01E9
:1005500060E177E242D180E3860FDCDFCE0168EE16
:1005600073E03BD1CB010AE010E0B80136D1805DE9
:10057000D1DFCE0164E670E030D1CB01B8012DD1DE
:10058000805DC8DFCE01B80128D1C82FCB01B801EA
:1005900024D1805DBFDF80E38C0FDF91CF911F916D
:1005A0000F91B8CFCF93DF931F92CDB7DEB769839A
:1005B000B8DF6981862F90E0C6DF88E591E00F9073
:1005C000DF91CF91AECFEF92FF920F931F93CF9316
:1005D000DF93EB017A018901A4DFCE01B4DF89EA60
:1005E00091E09FDFC7019DDFC801ADDF88E591E0A5
:1005F000DF91CF911F910F91FF90EF9092CF249AAE
:10060000259A3D983A98239A3C9A22983B98E1E89B
:10061000F0E080818160808308952C9A83E08A9540
:10062000F1F700002C98359BFECF109285001092B8
:1006300084003599FECF80918400909185006AE313
:1006400070E0CBD0CB0108952D9A83E08A95F1F725
:1006500000002D98329BFECF1092850010928400EE
:100660003299FECF80918400909185006AE370E01A
:10067000B4D0CB0108952B9A83E08A95F1F700005E
:100680002B981A9BFECF10928500109284001A9925
:10069000FECF80918400909185006AE370E09DD048
:1006A000CB010895449A83E08A95F1F700004498BD
:1006B000339BFECF10928500109284003399FECFB9
:1006C00080918400909185006AE370E086D0CB0130
:1006D0000895ECE7F0E0808180648083EAE7F0E051
:1006E0008081836080838081806880830895909179
:1006F0007C00907F982B90937C0080917A0080649E
:1007000080937A0080917A0086FDFCCF80917800FA
:100710009091790008955F98289A08955C985B9A63
:100720000895569A579A209A559A549A539A84B58E
:10073000806A84BD84B5836084BD85B5826085BDD3
:100740000895813011F45F9803C0823019F45F9AE4
:1007500028980895833009F4DECF843011F45F9A2D
:10076000289A0895813011F45C9803C0823019F4FE
:100770005C9A5B980895833009F4D0CF843011F4EB
:100780005C9A5B9A0895CF93DF93D62FC42F823063
:1007900091F030F4882359F08130E1F4BCDF14C0CB
:1007A000843081F058F08530A9F4B5DF0FC084E0C3
:1007B000C8DF84E00CC082E0C4DF08C081E0C1DF94
:1007C00081E005C082E0BDDFA9DF02C082E0CADFB0
:1007D000D7BDC8BDDF91CF910895AA1BBB1B51E1C6
:1007E00007C0AA1FBB1FA617B70710F0A61BB70BA1
:1007F000881F991F5A95A9F780959095BC01CD0146
:060800000895F894FFCFFB
:1008060002000101636F756E743A200074617267AD
:100816006574446973743A203A00546F70206C6FA3
:100826006F700A0D004C656674206C6F6F700A0D50
:10083600005269676874206C6F6F700A0D00476F0D
:100846006F6420656E6F7567680A0D004F757420BA
:100856006F662072616E67650A0D00476F207374BC
:100866007261696768740A0D006C72536F6E696312
:100876003A20006C6C536F6E69633A2000476F2014
:100886006C6566740A0D00476F2072696768740AA2
:100896000D004272616B652D4261636B7761726414
:0C08A6002D5069766F740A0D00090000E7
:00000001FF
