:100000005DC0000076C0000074C0000072C0000037
:1000100070C000006EC000006CC00000FAC100009B
:1000200068C0000066C0000064C0000062C000003C
:1000300060C000005EC000005CC000005AC000004C
:1000400058C0000056C0000054C0000052C000005C
:1000500050C000004EC000004CC000004AC000006C
:1000600048C0000046C0000009000A000B000B0059
:100070000C000F000E000000000000000000000057
:100080000000000009000B000C000C000D000F0028
:100090000E00000000000000000000000000000052
:1000A000F40158028A02BC02EE02200352038403C8
:1000B000B603E8031A044C047E04B00411241FBEE6
:1000C000CFEFD8E0DEBFCDBF11E0A0E0B1E0EAE3C2
:1000D000F6E002C005900D92AC33B107D9F711E0FC
:1000E000ACE3B1E001C01D92AE33B107E1F78ED0B1
:1000F000A2C286CF20E030E248EA51E685B18327EC
:1001000085B9CA010197F1F72F5F2830B9F72D9A09
:100110000895875B934018F4675B734018F080E0A4
:1001200091E009C108956F927F929F92AF92BF9222
:10013000CF92DF92EF92FF920F931F93CF93DF93B3
:10014000219AE0EAF0E08591949190938900809360
:10015000880080E197E20197F1F721989924E8E679
:10016000F0E0A590B490E4E8F0E0C590D49088E881
:10017000682E83E1782E64D1A816B90620F48C018C
:100180000A191B0909C08A159B0518F000E010E048
:1001900003C08501081B190B7AD1C816D90620F4B3
:1001A000EC01CC19DD0909C08C159D0518F0C0E0E3
:1001B000D0E003C0E601C81BD90B80E09DD17C01D3
:1001C00081E09AD1043060F4C43050F426EBE2169A
:1001D00023E0F20630F4865B934018F4939401C058
:1001E0009924C3010197F1F783E1891508F0C3CF82
:1001F000DF91CF911F910F91FF90EF90DF90CF9003
:10020000BF90AF909F907F906F900895AF92BF92F4
:10021000DF92EF92FF920F931F93CF93DF93259A74
:100220002D9A60D077D0DDD059D17BD163DF7BDFD1
:10023000219AECEAF0E08591949190938900809363
:10024000880081E068E748E7A2D1E4E7F0E0C591E3
:10025000D49190E5A92E93ECB92E80E04DD17C018C
:1002600081E04AD18C01ECD09C01C817D90718F461
:100270008C1B9D0B09C08C179D0718F080E090E047
:1002800003C0CE01821B930BD82E83E08D1550F056
:10029000C701B8013EDF86E091E04DD081E068E71C
:1002A00048E709C0C701B80134DF84E191E043D0D9
:1002B00085E064EB44EB6BD1C5010197F1F78FE169
:1002C00091E039D08D2D90E047D08BE291E033D092
:1002D0008EE291E030D080E090E03ED08BE291E081
:1002E0002AD0BBCFA0E8B0E08C9182608C93E1E88B
:1002F000F0E080818861808380818160808380E2FA
:100300009EE490938700809386008C9180688C9304
:10031000219808951092C5008CE08093C400E0EC11
:10032000F0E080818260808388E18093C10086E074
:100330008093C2000895AC0120E007C08091C00006
:1003400085FFFCCFE093C6002F5FFA01E20FF11D9D
:10035000E081EE2399F708959C018091C00085FF0C
:10036000FCCFC90160E177E23FD1605D6093C600D8
:100370008091C00085FFFCCFC90168EE73E034D1E5
:10038000CB016AE070E030D1805D8093C60080913F
:10039000C00085FFFCCFC90164E670E025D1CB0128
:1003A0006AE070E021D1805D8093C6008091C0003A
:1003B00085FFFCCFC9016AE070E016D1CB016AE08D
:1003C00070E012D1805D8093C6008091C00085FFEF
:1003D000FCCFC9016AE070E007D1805D8093C60060
:1003E0000895239A3C9A24983D98E0EBF0E08081B0
:1003F00082608083E1EBF0E0808181608083E0E7D0
:10040000F0E0808182608083789484E68093B300FA
:1004100008951F920F920FB60F9211248F939F93FE
:1004200080913C0190913D01019690933D01809314
:100430003C019F918F910F900FBE0F901F901895C8
:1004400010923D0110923C012B9A83E08A95F1F7BE
:100450002B981C9BFECF1092B2001C99FECF2091CE
:10046000B20040913C0150913D01225084E690E061
:10047000BC01469FC001479F900D569F900D1124CF
:10048000820F911D6AE370E0C3D0CB0108951092F2
:100490003D0110923C01449A83E08A95F1F744981B
:1004A000359BFECF1092B2003599FECF2091B2005D
:1004B00040913C0150913D01225084E690E0BC0106
:1004C000469FC001479F900D569F900D1124820FAB
:1004D000911D6AE370E09CD0CB010895ECE7F0E059
:1004E000808180648083EAE7F0E08081836080839C
:1004F000808180688083089590917C00907F982B04
:1005000090937C0080917A00806480937A0080913F
:100510007A0086FDFCCF2091780030917900C901E6
:100520000895569A579A209A559A549A539A84B590
:10053000806A84BD84B5836084BD85B5826085BDD5
:100540000895813011F45F9803C0823019F45F9AE6
:1005500028980895833019F45F98289A0895843074
:1005600011F45F9A289A0895813011F45C9803C0C1
:10057000823019F45C9A5B980895833019F45C9882
:100580005B9A0895843011F45C9A5B9A08950F93F6
:100590001F93162F042F8230A1F0833028F4882374
:1005A00051F08130F1F40BC0843089F0843058F080
:1005B0008530B9F410C084E0C4DF84E00FC083E06C
:1005C0000BC082E005C081E0BCDF81E007C083E0B2
:1005D000B8DF82E003C082E0B4DF83E0C5DF17BD8F
:1005E00008BD1F910F910895AA1BBB1B51E107C0C5
:1005F000AA1FBB1FA617B70710F0A61BB70B881FB3
:10060000991F5A95A9F780959095BC01CD01089541
:1006100097FB092E07260AD077FD04D0E5DF06D028
:1006200000201AF4709561957F4F0895F6F7909524
:0A06300081959F4F0895F894FFCFC5
:10063A004272616B6500476F207374726169676803
:10064A00740A0D00476F2072696768740A0D006C9E
:10065A0065667444656C74613A20000A0D0072691B
:0C066A0067687444656C74613A200000FD
:00000001FF
