:100000005DC0000076C0000074C0000072C0000037
:1000100070C000006EC000006CC000002FC1000066
:1000200068C0000066C0000064C0000062C000003C
:1000300060C000005EC000005CC000005AC000004C
:1000400058C0000056C0000054C0000052C000005C
:1000500050C000004EC000004CC000004AC000006C
:1000600048C0000046C0000009000A000B000B0059
:100070000C000F0012000000000000000000000053
:100080000000000009000B000C000C000D000F0028
:10009000120000000000000000000000000000004E
:1000A000F40158028A02BC02EE02200352038403C8
:1000B000B603E8031A044C047E04B00411241FBEE6
:1000C000CFEFD8E0DEBFCDBF11E0A0E0B1E0E8E9BE
:1000D000F3E002C005900D92A631B107D9F711E007
:1000E000A6E1B1E001C01D92A831B107E1F702D04D
:1000F00051C186CFCF93DF9337D0A8D01DD0219A9E
:10010000ECEAF0E0859194919093890080938800C7
:10011000C9E1D0E0CAD0682F80E091E08CD0ECD06B
:10012000682F89E091E087D080E197E2FE01319766
:10013000F1F70197D9F7EECFA0E8B0E08C9182609B
:100140008C93E1E8F0E08081886180838081816028
:10015000808380E29EE490938700809386008C9158
:1001600080688C93219808951092C5008CE080934C
:10017000C400E0ECF0E080818260808388E18093BD
:10018000C10086E08093C2000895AC0120E007C062
:100190008091C00085FFFCCFE093C6002F5FFA017D
:1001A000E20FF11DE081EE2399F708959C01809103
:1001B000C00085FFFCCFC90160E177E2C4D0605D7B
:1001C0006093C6008091C00085FFFCCFC90168EE36
:1001D00073E0B9D0CB016AE070E0B5D0805D809368
:1001E000C6008091C00085FFFCCFC90164E670E0C5
:1001F000AAD0CB016AE070E0A6D0805D8093C600F3
:100200008091C00085FFFCCFC9016AE070E09BD0FF
:10021000CB016AE070E097D0805D8093C60080914A
:10022000C00085FFFCCFC9016AE070E08CD0805D22
:100230008093C60008951F93162FA7DF812F90E0AB
:10024000B5DF82E191E0A1DF1F910895239A3C9AE6
:1002500024983D98E0EBF0E0808182608083E1EBC0
:10026000F0E0808181608083E0E7F0E0808182605F
:100270008083789484E68093B30008951F920F9250
:100280000FB60F9211248F939F9380911601909136
:100290001701019690931701809316019F918F91FA
:1002A0000F900FBE0F901F9018951092170110928B
:1002B00016012B9A83E08A95F1F72B981C9BFECFB1
:1002C0001092B2001C99FECF2091B200409116010D
:1002D00050911701225084E690E0BC01469FC00176
:1002E000479F900D569F900D1124820F911D6AE338
:1002F00070E03DD0CB0108951092170110921601C5
:10030000449A83E08A95F1F74498359BFECF10928A
:10031000B2003599FECF2091B20040911601509164
:100320001701225084E690E0BC01469FC001479F20
:10033000900D569F900D1124820F911D6AE370E07D
:1003400016D0CB010895AA1BBB1B51E107C0AA1F01
:10035000BB1FA617B70710F0A61BB70B881F991F66
:100360005A95A9F780959095BC01CD01089597FB0A
:10037000092E07260AD077FD04D0E5DF06D000203D
:100380001AF4709561957F4F0895F6F790958195D1
:080390009F4F0895F894FFCF80
:10039800536F6E6963313A2000536F6E6963323A66
:0603A80020000A0D000018
:00000001FF
