:1000000033C0000044C0000042C0000040C00000F7
:100010003EC000003CC000003AC0000038C00000F4
:1000200036C0000034C0000032C0000030C0000004
:100030002EC000002CC000002AC0000028C0000014
:1000400026C0000024C0000022C0000020C0000024
:100050001EC000001CC000001AC0000018C0000034
:1000600016C0000014C0000011241FBECFEFD8E05E
:10007000DEBFCDBF11E0A0E0B1E0E8E2F1E002C0F8
:1000800005900D92A830B107D9F702D04BC0B8CF78
:10009000CF93DF938AB18FEF8AB985B5856085BD2F
:1000A00084B5826084BD84B5806484BD8EEF87BDD5
:1000B00080916E00826080936E0080916E008160FE
:1000C00080936E0078940CD0C8EAD1E6CE010197F7
:1000D000F1F780E090E015D080E091E012D0F6CF0B
:1000E0001092C5008CE08093C400E0ECF0E08081C9
:1000F0008260808388E18093C10086E08093C200A3
:100100000895AC0120E007C08091C00085FFFCCFBE
:10011000E093C6002F5FFA01E20FF11DE081EE23AC
:0801200099F70895F894FFCF50
:080128006E657874200A0D00D9
:00000001FF
