:1000000033C000004CC000004AC0000048C00000DF
:1000100046C0000044C0000042C0000040C00000D4
:100020003EC000003CC000003AC0000038C00000E4
:1000300036C0000034C0000042C0000030C00000E4
:100040002EC000002CC000002AC0000028C0000004
:1000500026C0000024C0000022C0000020C0000014
:100060001EC000001CC0000011241FBECFEFD8E04E
:10007000DEBFCDBF11E0A0E0B1E0ECEFF1E002C0E7
:1000800005900D92AE30B107D9F711E0AEE0B1E0C6
:1000900001C01D92A031B107E1F72CD0ADC0B0CFA7
:1000A00084B5826084BD85B5846085BDEEE6F0E0F0
:1000B000808182608083789484E687BD08951F9252
:1000C0000F920FB60F9211248F939F9380910E0180
:1000D00090910F01019690930F0180930E0185B1CD
:1000E00094E0892785B99F918F910F900FBE0F9053
:1000F0001F901895CF93DF93D3DFF8942ED0229AD8
:100100002A9A80E593EC29E130E0F9013197F1F783
:100110000197D9F72A9816BC7894C9E1D0E080E01D
:1001200091E02CD08BE091E029D08FEF9FEFFE0182
:100130003197F1F70197D9F780910E0190910F0156
:1001400010920F0110920E0180910E0190910F01FB
:1001500026D08BE091E012D0E2CF1092C5008CE067
:100160008093C400E0ECF0E080818260808388E1CD
:100170008093C10086E08093C2000895AC0120E026
:1001800007C08091C00085FFFCCFE093C6002F5FC1
:10019000FA01E20FF11DE081EE2399F70895282F6F
:1001A0008091C00085FFFCCF822F64E619D0805D6E
:1001B0008093C6008091C00085FFFCCF822F6AE04B
:1001C0000FD00ED0905D9093C6008091C00085FF47
:1001D000FCCF822F6AE004D0905D9093C600089512
:1001E000991B79E004C0991F961708F0961B881F89
:0C01F0007A95C9F780950895F894FFCF28
:0E01FC004C6F6F7020416761696E000A0D0044
:00000001FF
