:1000000033C0000044C0000042C0000040C00000F7
:100010003EC000003CC000003AC0000038C00000F4
:1000200036C0000034C0000032C0000030C0000004
:100030002EC000002CC000002AC0000028C0000014
:1000400026C0000024C0000022C0000020C0000024
:100050001EC000001CC000001AC0000018C0000034
:1000600016C0000014C0000011241FBECFEFD8E05E
:10007000DEBFCDBF11E0A0E0B1E0E4E1F3E002C0FB
:1000800005900D92AE30B107D9F7BED041C1B8CFBF
:100090003D9A3C98459A83E08A95F1F74598349BC0
:1000A000FECF20E030E040E050E004C02F5F3F4F43
:1000B0004F4F5F4F3499FACFB901CA010895EF92BB
:1000C000FF920F931F937B018C0120E03AEC4AE9E9
:1000D0005BE3FCD0822F805DE0D0C801B70120E057
:1000E00031EE45EF55E0F2D0CA01B9012AE030E027
:1000F00040E050E0EBD0862F805DCFD0C801B70143
:1001000020E836E948E950E0E1D0CA01B9012AE027
:1001100030E040E050E0DAD0862F805DBED0C801EC
:10012000B70120E432E44FE050E0D0D0CA01B90179
:100130002AE030E040E050E0C9D0862F805DADD0AD
:10014000C801B70120EA36E841E050E0BFD0CA015B
:10015000B9012AE030E040E050E0B8D0862F805D61
:100160009CD0C801B70120E137E240E050E0AED0BA
:10017000CA01B9012AE030E040E050E0A7D0862F64
:10018000805D8BD0C801B70128EE33E040E050E03D
:100190009DD0CA01B9012AE030E040E050E096D09D
:1001A000862F805D7AD0C801B70124E630E040E0B8
:1001B00050E08CD0CA01B9012AE030E040E050E0C4
:1001C00085D0862F805D69D0C801B7012AE030E074
:1001D00040E050E07BD0CA01B9012AE030E040E0C5
:1001E00050E074D0862F805D58D0C801B7012AE056
:1001F00030E040E050E06AD0862F805D4ED01F9105
:100200000F91FF90EF900895EF92FF920F931F933D
:10021000CF93DF9331D0259A2D9AC9E1D0E038DF12
:100220007B018C0180E091E040D088E893E1FE0101
:100230003197F1F70197D9F7C801B70123E0660FAD
:10024000771F881F991F2A95D1F76E197F09800B98
:10025000910B2AE330E040E050E038D0CA01B90108
:100260002EDF8BE091E021D080E29EE4FE01319709
:10027000F1F70197D9F7D3CF1092C5008CE08093A6
:10028000C400E0ECF0E080818260808388E18093AC
:10029000C10086E08093C2000895982F8091C0002D
:1002A00085FFFCCF9093C6000895AC0120E007C005
:1002B0008091C00085FFFCCFE093C6002F5FFA015C
:1002C000E20FF11DE081EE2399F70895A1E21A2EC5
:1002D000AA1BBB1BFD010DC0AA1FBB1FEE1FFF1FEA
:1002E000A217B307E407F50720F0A21BB30BE40B3A
:1002F000F50B661F771F881F991F1A9469F7609581
:100300007095809590959B01AC01BD01CF0108953A
:04031000F894FFCF8F
:0E03140044697374616E63653A20000A0D003F
:00000001FF
