:1000000033C0000039C0000037C0000035C0000018
:1000100033C0000031C000002FC000002DC0000020
:100020002BC0000029C0000027C0000025C0000030
:1000300023C0000021C000001FC000001DC0000040
:100040001BC0000019C0000017C0000015C0000050
:1000500013C0000011C000000FC000000DC0000060
:100060000BC0000009C0000011241FBECFEFD8E074
:10007000DEBFCDBF0CD077C0C3CF84B5826884BD4E
:1000800084B5816084BD85B5826085BD08951F9368
:10009000F4DF0AD08AB1806C8AB9209817BC36D0B8
:1000A000182F13D017BDFBCF1092C5008CE08093A2
:1000B000C400E0ECF0E080818260808388E180937E
:1000C000C10086E08093C2000895282F8091C0006F
:1000D00085FFFCCF822F64E63AD0805D8093C60016
:1000E0008091C00085FFFCCF822F6AE030D02FD0F6
:1000F000905D9093C6008091C00085FFFCCF822F59
:100100006AE025D0905D9093C600089540E330E307
:1001100020E38091C00087FFFCCF9091C6008091C2
:10012000C00085FFFCCF9093C6009D3021F0432F87
:10013000322F292FEECF205D84E6489FC001112485
:10014000280F8AE0389FC0011124820F0895991B5F
:1001500079E004C0991F961708F0961B881F7A95BE
:0A016000C9F780950895F894FFCFC9
:00000001FF
