:1000000033C000004CC000004AC0000048C00000DF
:1000100046C0000044C0000042C0000040C00000D4
:100020003EC000003CC000003AC0000038C00000E4
:1000300036C0000034C00000D8C0000030C000004E
:100040002EC000002CC000002AC0000028C0000004
:1000500026C0000024C0000022C0000020C0000014
:100060001EC000001CC0000011241FBECFEFD8E04E
:10007000DEBFCDBF11E0A0E0B1E0EEEFF2E002C0E4
:1000800005900D92A831B107D9F711E0A8E1B1E0D0
:1000900001C01D92AA31B107E1F702D02EC1B0CF45
:1000A0000F931F93CF93DF9326D08CD0C9E1D0E07C
:1000B000D8D08C0180E091E02FD0C8013ED08AE0FA
:1000C00091E02AD088E893E1FE013197F1F701979A
:1000D000D9F7A2D08C018DE091E01ED0C8012DD0BF
:1000E0008AE091E019D088E893E1FE013197F1F7B9
:1000F0000197D9F7DDCF1092C5008CE08093C40042
:10010000E0ECF0E080818260808388E18093C10030
:1001100086E08093C2000895AC0120E007C0809182
:10012000C00085FFFCCFE093C6002F5FFA01E20F0D
:10013000F11DE081EE2399F708959C018091C000A4
:1001400085FFFCCFC90160E177E2B0D0605D6093CC
:10015000C6008091C00085FFFCCFC90168EE73E046
:10016000A5D0CB016AE070E0A1D0805D8093C6008D
:100170008091C00085FFFCCFC90164E670E096D095
:10018000CB016AE070E092D0805D8093C6008091E0
:10019000C00085FFFCCFC9016AE070E087D0CB01C9
:1001A0006AE070E083D0805D8093C6008091C000DB
:1001B00085FFFCCFC9016AE070E078D0805D809354
:1001C000C6000895239A3C9A24983D9884B582608D
:1001D00084BD85B5816085BDEEE6F0E080818260FA
:1001E0008083789484E687BD08951F920F920FB69E
:1001F0000F9211248F939F93809118019091190170
:10020000019690931901809318019F918F910F90FF
:100210000FBE0F901F90189510921901109218019F
:100220002B9A83E08A95F1F72B981C9BFECF16BC86
:100230001C99FECF26B5409118015091190122500A
:1002400084E690E0BC01469FC001479F900D569FF9
:10025000900D1124820F911D6AE370E03BD0CB0119
:1002600008951092190110921801449A83E08A951A
:10027000F1F74498359BFECF16BC3599FECF26B5D5
:100280004091180150911901225084E690E0BC0180
:10029000469FC001479F900D569F900D1124820FDD
:1002A000911D6AE370E016D0CB010895AA1BBB1B19
:1002B00051E107C0AA1FBB1FA617B70710F0A61B66
:1002C000B70B881F991F5A95A9F780959095BC0187
:1002D000CD01089597FB092E07260AD077FD04D09B
:1002E000E5DF06D000201AF4709561957F4F0895E0
:0E02F000F6F7909581959F4F0895F894FFCFF3
:1002FE00536F6E696320323A20000A0D00536F6E01
:08030E00696320313A20000070
:00000001FF
