:1000000033C0000044C0000042C0000040C00000F7
:100010003EC000003CC000003AC0000038C00000F4
:1000200036C0000034C0000032C0000030C0000004
:100030002EC000002CC000002AC0000028C0000014
:1000400026C0000024C0000022C0000020C0000024
:100050001EC000001CC000001AC0000018C0000034
:1000600016C0000014C0000011241FBECFEFD8E05E
:10007000DEBFCDBF11E0A0E0B1E0EEE3F2E002C0F0
:1000800005900D92A830B107D9F702D0D6C0B8CFED
:10009000EF92FF920F931F93CF93DF9330D096D0C0
:1000A00009E110E080E0A0D0EC0181E09DD07C016E
:1000B00080E091E035D088EB9BE0F8013197F1F7D3
:1000C0000197D9F7CE013DD088EB9BE0F80131973D
:1000D000F1F70197D9F784E091E022D088EB9BE01B
:1000E000F8013197F1F70197D9F7C7012AD080E1DC
:1000F00097E2F8013197F1F70197D9F7D3CF109232
:10010000C5008CE08093C400E0ECF0E08081826068
:10011000808388E18093C10086E08093C2000895C7
:10012000AC0120E007C08091C00085FFFCCFE093C8
:10013000C6002F5FFA01E20FF11DE081EE2399F76F
:1001400008959C018091C00085FFFCCFC90160E14A
:1001500077E25FD0605D6093C6008091C00085FF4C
:10016000FCCFC90168EE73E054D0CB016AE070E0C7
:1001700050D0805D8093C6008091C00085FFFCCF89
:10018000C90164E670E045D0CB016AE070E041D07F
:10019000805D8093C6008091C00085FFFCCFC901BF
:1001A0006AE070E036D0CB016AE070E032D0805D6A
:1001B0008093C6008091C00085FFFCCFC9016AE032
:1001C00070E027D0805D8093C6000895ECE7F0E0F2
:1001D000808180648083EAE7F0E0808183608083AF
:1001E000808180688083089590917C00907F982B17
:1001F00090937C0080917A00806480937A00809153
:100200007A0086FDFCCF2091780030917900C901F9
:100210000895AA1BBB1B51E107C0AA1FBB1FA6174D
:10022000B70710F0A61BB70B881F991F5A95A9F79F
:0E02300080959095BC01CD010895F894FFCF04
:08023E004C3A2000523A200066
:00000001FF
