:1000000033C000004DC000004AC0000048C00000DE
:1000100046C0000044C0000042C0000040C00000D4
:100020003EC000003CC000003AC0000038C00000E4
:1000300036C0000034C0000032C0000030C00000F4
:100040002EC000002CC000002AC0000028C0000004
:1000500026C0000024C0000022C0000020C0000014
:100060001EC000001CC0000011241FBECFEFD8E04E
:10007000DEBFCDBF11E0A0E0B1E0ECE4F1E002C0F2
:1000800005900D92A230B107D9F711E0A2E0B1E0DE
:1000900001C01D92A330B107E1F714D055C0B0CF15
:1000A0001F920F920FB60F9211248F939F9385B1D9
:1000B00098E0892785B99F918F910F900FBE0F907F
:1000C0001F9018958FEF84B91AB885B980E197E22F
:1000D00029E130E0F9013197F1F70197D9F715B827
:1000E0005A9A80E197E229E130E0F9013197F1F77E
:1000F0000197D9F7E89A809169008160809369003F
:10010000789481E090E09C010090020102C0220FEF
:10011000331F0A94E2F70090000102C0880F991F74
:100120000A94E2F7982F69E170E085B1822785B9DA
:1001300085B1892785B940E157E2FB013197F1F795
:0C01400041505040D1F7F1CFF894FFCFB0
:02014C000100B0
:00000001FF
